:1000000012C02CC02BC02AC029C028C027C026C0BF
:1000100025C024C023C022C021C020C01FC01EC0D4
:100020001DC01CC01BC011241FBECFE5D4E0DEBF25
:10003000CDBF10E0A0E6B0E0E4ECF5E002C0059032
:100040000D92A836B107D9F720E0A8E6B0E001C0CC
:100050001D92A637B207E1F724D2B2C2D1CF0097E2
:1000600019F000000197E9F7089511B886E480B906
:1000700084E086BF089584EA86BF06B607FEFDCFFA
:10008000089584E986BF84E690E0E9DF089583B9A6
:1000900084E886BF06B607FEFDCF089520E4829F60
:1000A000C0011124846886BF06B607FEFDCF83B168
:1000B000089587B93E9A3D9886B1876086B9379A88
:1000C000369A3699FECF24B185B190E0982F8827D3
:1000D000820F911D089581991CC0809166009091B6
:1000E0006700019711F510926700109266008091E9
:1000F000740090917500019729F410927500109288
:100100007400089581E090E09093750080937400EE
:1001100008958091660090916700892B31F481E009
:1001200090E09093670080936600089580990DC0D9
:100130008091720090917300892B89F481E090E0A6
:100140009093730080937200089580917200909153
:100150007300019721F410927300109272000895B9
:10016000CF93DF93CDB7DEB727970FB6F894DEBFF6
:100170000FBECDBF29833A834B835C836D837E831F
:100180008F834423C9F080E0A895982F9F7E9A50D2
:10019000963078F0C49AEBE4FDE13197F1F700C0B6
:1001A0000000A895C498EFE0F7E23197F1F700C09E
:1001B00000008F5F4813E8CF8FE19EE40197F1F7CD
:1001C00000C000009A81903110F096500FC090321C
:1001D00010F09C500BC0903310F0985107C0903431
:1001E00010F09E5103C0903508F094529923A1F06D
:1001F00080E0A895C49AE7E8F3E13197F1F700C0F1
:100200000000A895C498EBE4FDE13197F1F700C038
:1002100000008F5F9813EDCF27960FB6F894DEBFDE
:100220000FBECDBFDF91CF910895CF93DF93CDB7B0
:10023000DEB727970FB6F894DEBF0FBECDBF298378
:100240003A834B835C836D837E838F8384990DC057
:100250008091620090916300019799F4109263007D
:10026000109262008F817CDF0CC0809162009091BF
:100270006300892B31F481E090E0909363008093D8
:10028000620027960FB6F894DEBF0FBECDBFDF9198
:10029000CF910895019741F4C09A81E090E0909346
:1002A0007100809370000895C098109271001092B0
:1002B0007000089580E0FDDEB69B20C020916800AC
:1002C00030916900232BD1F421E030E030936900B4
:1002D0002093680020916000309161002817390751
:1002E0003CF58091740090917500892B09F581E0AF
:1002F00090E09093750080937400CCDFB6991AC09B
:1003000080916800909169000197A1F410926900B2
:10031000109268008091740090917500019751F4DB
:10032000109275001092740080E090E0B3DF0895A1
:10033000B69BECCF0895CF93DF939B9947C08091F4
:100340006E0090916F00019709F040C010926F000D
:1003500010926E0080916C0090916D00019680313A
:1003600091050CF442C010926D0010926C008091C7
:100370006A0090916B00009771F4C1E0D0E0D093D7
:100380007500C093740081E090E084DFD0936B002F
:10039000C0936A001BC0019781F481E090E09093C4
:1003A00075008093740080E090E074DF82E090E05C
:1003B00090936B0080936A0009C0109275001092B0
:1003C000740010926B0010926A0013C09B9B13C0C4
:1003D00080916E0090916F00892B69F481E090E02C
:1003E00090936F0080936E0006C090936D00809391
:1003F0006C009B99F3CFDF91CF91089582990EC045
:1004000080916400909165000197A1F410926500BD
:100410001092640081E090E03DDF089580916400D7
:1004200090916500892B31F481E090E09093650014
:1004300080936400089583990EC080916400909128
:1004400065000197A1F4109265001092640080E0AD
:1004500090E020DF08958091640090916500892BE1
:1004600031F481E090E090936500809364000895FA
:10047000019711F4C1980895C19A0895019711F454
:10048000C2980895C29A0895019711F4C3980895E7
:10049000C39A0895A09811BA8FEB87BB8EEF82BBE9
:1004A0000895CF93DF93CDB7DEB727970FB6F894B3
:1004B000DEBF0FBECDBF8FEF81BF53D0EBDF9FE01C
:1004C00088E10FB6F894A89581BD0FBE91BDA8959F
:1004D00032DFF0DECE0101964ED029813A814B8188
:1004E0005C816D817E818F81A0DEF5DD1FDE8091D4
:1004F000740090917500019721F481E090E0C4DFD1
:1005000003C080E090E0C0DF80917400909175009E
:10051000892BB9F481E090E0B1DF80917200909175
:100520007300019739F480E090E0B4DE81E090E060
:100530009FDF09C081E090E0ADDE80E090E098DFD1
:1005400002C05CDF78DF80917200909173000197A8
:1005500021F481E090E08CDFBACF80E090E088DF8A
:10056000B6CF83DD88DD80ED92DD87E090DD80E031
:100570008EDD87DD0895CF93DF93EC017CDD80ED88
:1005800086DD80E084DD7DDD76DD81ED80DD81E06E
:1005900085DD888381E082DD898381E07FDD8A8358
:1005A00081E07CDD8B8381E079DD8C8381E076DD09
:1005B0008D8380E073DD8E8364DDDF91CF910895BC
:0405C000F894FFCFDD
:0805C40090010100010001009B
:00000001FF
