:1000000012C02CC02BC02AC029C028C027C026C0BF
:1000100025C024C023C022C021C020C01FC01EC0D4
:100020001DC01CC01BC011241FBECFE5D4E0DEBF25
:10003000CDBF10E0A0E6B0E0EAEBF4E002C005902E
:100040000D92A636B107D9F720E0A6E6B0E001C0D0
:100050001D92AA36B207E1F790D12DC2D1CF0097F9
:1000600019F000000197E9F7089511B886E480B906
:1000700084E086BF089584EA86BF06B607FEFDCFFA
:10008000089584E986BF84E690E0E9DF089583B9A6
:1000900084E886BF06B607FEFDCF089520E4829F60
:1000A000C0011124846886BF06B607FEFDCF83B168
:1000B000089581991CC0809164009091650001971A
:1000C00011F5109265001092640080916600909185
:1000D0006700019729F41092670010926600089556
:1000E00081E090E09093670080936600089580918E
:1000F000640090916500892B31F481E090E0909349
:10010000650080936400089580990DC08091680017
:1001100090916900892B89F481E090E090936900C7
:10012000809368000895809168009091690001971C
:1001300021F410926900109268000895CF93DF9324
:10014000CDB7DEB727970FB6F894DEBF0FBECDBF91
:1001500029833A834B835C836D837E838F8344231F
:10016000F9F080E0A895982F9F7E9A509630A8F0DD
:10017000C49A2FEF36E791E0215030409040E1F7EC
:1001800000C00000A895C4982FEF33EF91E02150F4
:1001900030409040E1F700C000008F5F8413E2CF51
:1001A0002FEF37EE43E0215030404040E1F700C0F0
:1001B00000009A81903110F096500FC0903210F0EC
:1001C0009C500BC0903310F0985107C0903410F041
:1001D0009E5103C0903508F094529923D1F080E0ED
:1001E000A895C49A2FEF39EF40E0215030404040AD
:1001F000E1F700C00000A895C4982FEF36E741E072
:10020000215030404040E1F700C000008F5F89136B
:10021000E7CF27960FB6F894DEBF0FBECDBFDF91B4
:10022000CF910895CF93DF93CDB7DEB727970FB661
:10023000F894DEBF0FBECDBF29833A834B835C8326
:100240006D837E838F8384990DC08091600090912F
:100250006100019799F410926100109260008F8103
:100260006DDF0CC08091600090916100892B31F4AA
:1002700081E090E0909361008093600027960FB634
:10028000F894DEBF0FBECDBFDF91CF910895CF931D
:10029000DF93CDB7DEB727970FB6F894DEBF0FBE5A
:1002A000CDBF553039F0425181E090E0473020F029
:1002B00080E002C080E090E027960FB6F894DEBFA1
:1002C0000FBECDBFDF91CF910895019711F4C09A71
:1002D0000895C098089582990EC08091620090910F
:1002E00063000197A1F4109263001092620081E014
:1002F00090E0EBDF08958091620090916300892B7C
:1003000031F481E090E0909363008093620008955F
:1003100083990EC080916200909163000197A1F4CF
:10032000109263001092620080E090E0CEDF0895AA
:100330008091620090916300892B31F481E090E01C
:1003400090936300809362000895019711F4C19A1D
:100350000895C1980895019711F4C29A0895C2981A
:100360000895019711F4C39A0895C398089511BA96
:100370008FEF87BB8EEF82BB0895CF93DF93CDB70E
:10038000DEB727970FB6F894DEBF0FBECDBF8FEF55
:1003900081BF62D0ECDF9FE088E10FB6F894A895AA
:1003A00081BD0FBE91BDA895CE0101965FD0298178
:1003B0003A814B815C816D817E818F8133DF79DE73
:1003C000A3DE8091660090916700019721F481E09F
:1003D00090E0C7DF03C080E090E0C3DF809166005B
:1003E00090916700892B41F529813A814B815C818D
:1003F0006D817E818F814BDF0197B9F481E090E0C0
:10040000AADF8091680090916900019739F480E03B
:1004100090E05BDF81E090E098DF10C081E090E049
:1004200054DF80E090E091DF09C080E090E093DF4E
:1004300080E090E04ADF02C04EDF6ADF8091680012
:1004400090916900019721F481E090E07EDFABCFCD
:1004500080E090E07ADFA7CF08DE0DDE80ED17DECA
:1004600087E015DE80E013DE0CDE0895CF93DF9386
:10047000EC0101DE80ED0BDE80E009DE02DEFBDD5B
:1004800081ED05DE81E00ADE888381E007DE898375
:1004900081E004DE8A8381E001DE8B8381E0FEDD82
:1004A0008C8381E0FBDD8D8380E0F8DD8E83E9DDE8
:0A04B000DF91CF910895F894FFCF7B
:0604BA0001000100010039
:00000001FF
