:1000000012C02CC02BC02AC029C028C027C026C0BF
:1000100025C024C023C022C021C020C01FC01EC0D4
:100020001DC01CC01BC011241FBECFE5D4E0DEBF25
:10003000CDBF10E0A0E6B0E0EAEAF4E002C005902F
:100040000D92A636B107D9F720E0A6E6B0E001C0D0
:100050001D92AA36B207E1F791D125C2D1CF009700
:1000600019F000000197E9F7089511B886E480B906
:1000700084E086BF089584EA86BF06B607FEFDCFFA
:10008000089584E986BF84E690E0E9DF089583B9A6
:1000900084E886BF06B607FEFDCF089520E4829F60
:1000A000C0011124846886BF06B607FEFDCF83B168
:1000B000089581991CC0809164009091650001971A
:1000C00011F5109265001092640080916600909185
:1000D0006700019729F41092670010926600089556
:1000E00081E090E09093670080936600089580918E
:1000F000640090916500892B31F481E090E0909349
:10010000650080936400089580990DC08091680017
:1001100090916900892B89F481E090E090936900C7
:10012000809368000895809168009091690001971C
:1001300021F410926900109268000895CF93DF9324
:10014000CDB7DEB727970FB6F894DEBF0FBECDBF91
:1001500029833A834B835C836D837E838F8344231F
:10016000E9F080E0982F9F7E9A509630A0F0C49AD4
:100170002FEF36E791E0215030409040E1F700C08A
:100180000000C4982FEF33EF91E0215030409040B1
:10019000E1F700C000008F5F8413E4CF2FEF37EE4C
:1001A00043E0215030404040E1F700C000009A8118
:1001B000903110F096500FC0903210F09C500BC050
:1001C000903310F0985107C0903410F09E5103C046
:1001D000903508F094529923C1F080E0C49A2FEF33
:1001E00039EF40E0215030404040E1F700C00000CE
:1001F000C4982FEF36E741E0215030404040E1F70E
:1002000000C000008F5F8913E9CF27960FB6F894DE
:10021000DEBF0FBECDBFDF91CF910895CF93DF93A7
:10022000CDB7DEB727970FB6F894DEBF0FBECDBFB0
:1002300029833A834B835C836D837E838F83849988
:100240000DC08091600090916100019799F4109227
:100250006100109260008F8171DF0CC0809160009E
:1002600090916100892B31F481E090E090936100DE
:100270008093600027960FB6F894DEBF0FBECDBF07
:10028000DF91CF910895CF93DF93CDB7DEB7279756
:100290000FB6F894DEBF0FBECDBF553049F04151C7
:1002A000473048F481E090E0303339F080E005C019
:1002B00080E090E002C080E090E027960FB6F894CE
:1002C000DEBF0FBECDBFDF91CF910895019711F42E
:1002D000C09A0895C098089582990EC080916200D6
:1002E000909163000197A1F4109263001092620054
:1002F00081E090E0EBDF08958091620090916300CF
:10030000892B31F481E090E0909363008093620048
:10031000089583990EC080916200909163000197C7
:10032000A1F4109263001092620080E090E0CEDFB2
:1003300008958091620090916300892B31F481E0EF
:1003400090E090936300809362000895019711F408
:10035000C19A0895C1980895019711F4C29A089519
:10036000C2980895019711F4C39A0895C398089507
:1003700011BA8FEF87BB8EEF82BB0895CF93DF93C7
:10038000CDB7DEB727970FB6F894DEBF0FBECDBF4F
:100390008FEF81BF59D0ECDFCE0101965FD029816C
:1003A0003A814B815C816D817E818F8137DF81DE77
:1003B000ABDE8091660090916700019721F481E0A7
:1003C00090E0D0DF03C080E090E0CCDF8091660059
:1003D00090916700892B41F529813A814B815C819D
:1003E0006D817E818F814FDF0197B9F481E090E0CC
:1003F000B3DF8091680090916900019739F480E043
:1004000090E064DF81E090E0A1DF10C081E090E047
:100410005DDF80E090E09ADF09C080E090E09CDF43
:1004200080E090E053DF02C057DF73DF8091680007
:1004300090916900019721F481E090E087DFACCFD3
:1004400080E090E083DFA8CF10DE15DE80ED1FDEB8
:1004500087E01DDE80E01BDE14DE0895CF93DF937E
:10046000EC0109DE80ED13DE80E011DE0ADE03DE42
:1004700081ED0DDE81E012DE888381E00FDE89836D
:1004800081E00CDE8A8381E009DE8B8381E006DE79
:100490008C8381E003DE8D8380E000DE8E83F1DDDE
:0A04A000DF91CF910895F894FFCF8B
:0604AA0001000100010049
:00000001FF
